{
    "contractName": "GasTank",
    "abi": [
        {
            "anonymous": false,
            "inputs": [
                {
                    "indexed": true,
                    "internalType": "address",
                    "name": "payer",
                    "type": "address"
                },
                {
                    "indexed": true,
                    "internalType": "address",
                    "name": "payee",
                    "type": "address"
                },
                {
                    "indexed": false,
                    "internalType": "bool",
                    "name": "approved",
                    "type": "bool"
                }
            ],
            "name": "Approved",
            "type": "event"
        },
        {
            "anonymous": false,
            "inputs": [
                {
                    "indexed": true,
                    "internalType": "address",
                    "name": "user",
                    "type": "address"
                },
                {
                    "indexed": false,
                    "internalType": "uint256",
                    "name": "amount",
                    "type": "uint256"
                }
            ],
            "name": "DepositGas",
            "type": "event"
        },
        {
            "anonymous": false,
            "inputs": [
                {
                    "indexed": true,
                    "internalType": "address",
                    "name": "previousOwner",
                    "type": "address"
                },
                {
                    "indexed": true,
                    "internalType": "address",
                    "name": "newOwner",
                    "type": "address"
                }
            ],
            "name": "OwnershipTransferred",
            "type": "event"
        },
        {
            "anonymous": false,
            "inputs": [
                {
                    "indexed": false,
                    "internalType": "address",
                    "name": "account",
                    "type": "address"
                }
            ],
            "name": "Paused",
            "type": "event"
        },
        {
            "anonymous": false,
            "inputs": [
                {
                    "indexed": true,
                    "internalType": "address",
                    "name": "payer",
                    "type": "address"
                },
                {
                    "indexed": true,
                    "internalType": "address",
                    "name": "payee",
                    "type": "address"
                },
                {
                    "indexed": false,
                    "internalType": "uint256",
                    "name": "amount",
                    "type": "uint256"
                }
            ],
            "name": "Pay",
            "type": "event"
        },
        {
            "anonymous": false,
            "inputs": [
                {
                    "indexed": false,
                    "internalType": "address",
                    "name": "account",
                    "type": "address"
                }
            ],
            "name": "Unpaused",
            "type": "event"
        },
        {
            "anonymous": false,
            "inputs": [
                {
                    "indexed": true,
                    "internalType": "address",
                    "name": "user",
                    "type": "address"
                },
                {
                    "indexed": false,
                    "internalType": "uint256",
                    "name": "amount",
                    "type": "uint256"
                }
            ],
            "name": "WithdrawGas",
            "type": "event"
        },
        {
            "inputs": [
                {
                    "internalType": "address",
                    "name": "",
                    "type": "address"
                }
            ],
            "name": "_approvedPayees",
            "outputs": [
                {
                    "internalType": "bool",
                    "name": "",
                    "type": "bool"
                }
            ],
            "stateMutability": "view",
            "type": "function"
        },
        {
            "inputs": [
                {
                    "internalType": "address",
                    "name": "_payee",
                    "type": "address"
                }
            ],
            "name": "addPayee",
            "outputs": [],
            "stateMutability": "nonpayable",
            "type": "function"
        },
        {
            "inputs": [
                {
                    "internalType": "address",
                    "name": "_payee",
                    "type": "address"
                },
                {
                    "internalType": "bool",
                    "name": "_approve",
                    "type": "bool"
                }
            ],
            "name": "approve",
            "outputs": [],
            "stateMutability": "nonpayable",
            "type": "function"
        },
        {
            "inputs": [
                {
                    "internalType": "uint256",
                    "name": "",
                    "type": "uint256"
                }
            ],
            "name": "approvedPayees",
            "outputs": [
                {
                    "internalType": "address",
                    "name": "",
                    "type": "address"
                }
            ],
            "stateMutability": "view",
            "type": "function"
        },
        {
            "inputs": [
                {
                    "internalType": "address",
                    "name": "_receiver",
                    "type": "address"
                }
            ],
            "name": "depositGas",
            "outputs": [],
            "stateMutability": "payable",
            "type": "function"
        },
        {
            "inputs": [
                {
                    "internalType": "contract IERC20",
                    "name": "_token",
                    "type": "address"
                },
                {
                    "internalType": "uint256",
                    "name": "_amount",
                    "type": "uint256"
                }
            ],
            "name": "emergencyWithdraw",
            "outputs": [],
            "stateMutability": "nonpayable",
            "type": "function"
        },
        {
            "inputs": [],
            "name": "feeAddress",
            "outputs": [
                {
                    "internalType": "address payable",
                    "name": "",
                    "type": "address"
                }
            ],
            "stateMutability": "view",
            "type": "function"
        },
        {
            "inputs": [],
            "name": "owner",
            "outputs": [
                {
                    "internalType": "address",
                    "name": "",
                    "type": "address"
                }
            ],
            "stateMutability": "view",
            "type": "function"
        },
        {
            "inputs": [],
            "name": "paused",
            "outputs": [
                {
                    "internalType": "bool",
                    "name": "",
                    "type": "bool"
                }
            ],
            "stateMutability": "view",
            "type": "function"
        },
        {
            "inputs": [
                {
                    "internalType": "address",
                    "name": "_payer",
                    "type": "address"
                },
                {
                    "internalType": "address",
                    "name": "_payee",
                    "type": "address"
                },
                {
                    "internalType": "uint256",
                    "name": "_amount",
                    "type": "uint256"
                }
            ],
            "name": "pay",
            "outputs": [],
            "stateMutability": "nonpayable",
            "type": "function"
        },
        {
            "inputs": [
                {
                    "internalType": "address",
                    "name": "_payee",
                    "type": "address"
                }
            ],
            "name": "removePayee",
            "outputs": [],
            "stateMutability": "nonpayable",
            "type": "function"
        },
        {
            "inputs": [],
            "name": "renounceOwnership",
            "outputs": [],
            "stateMutability": "nonpayable",
            "type": "function"
        },
        {
            "inputs": [
                {
                    "internalType": "address",
                    "name": "newOwner",
                    "type": "address"
                }
            ],
            "name": "transferOwnership",
            "outputs": [],
            "stateMutability": "nonpayable",
            "type": "function"
        },
        {
            "inputs": [],
            "name": "txFee",
            "outputs": [
                {
                    "internalType": "uint256",
                    "name": "",
                    "type": "uint256"
                }
            ],
            "stateMutability": "view",
            "type": "function"
        },
        {
            "inputs": [
                {
                    "internalType": "address",
                    "name": "",
                    "type": "address"
                }
            ],
            "name": "userGasAmounts",
            "outputs": [
                {
                    "internalType": "uint256",
                    "name": "",
                    "type": "uint256"
                }
            ],
            "stateMutability": "view",
            "type": "function"
        },
        {
            "inputs": [
                {
                    "internalType": "address",
                    "name": "",
                    "type": "address"
                },
                {
                    "internalType": "address",
                    "name": "",
                    "type": "address"
                }
            ],
            "name": "userPayeeApprovals",
            "outputs": [
                {
                    "internalType": "bool",
                    "name": "",
                    "type": "bool"
                }
            ],
            "stateMutability": "view",
            "type": "function"
        },
        {
            "inputs": [
                {
                    "internalType": "uint256",
                    "name": "_amount",
                    "type": "uint256"
                }
            ],
            "name": "withdrawGas",
            "outputs": [],
            "stateMutability": "nonpayable",
            "type": "function"
        }
    ],
    "bytecode": "608060405234801561001057600080fd5b5061001a3361002d565b600180556002805460ff1916905561007d565b600080546001600160a01b038381166001600160a01b0319831681178455604051919092169283917f8be0079c531659141344cd1fd0a4f28419497f9722a3daafe3b4186f6b6457e09190a35050565b61132e8061008c6000396000f3fe6080604052600436106100fe5760003560e01c80638da5cb5b11610095578063b3d7618811610064578063b3d76188146102eb578063c123cb441461030b578063cf8204611461031e578063dce59c0014610339578063f2fde38b1461035957600080fd5b80638da5cb5b1461025d578063916575441461027b57806395ccea671461029b578063aae8dd79146102bb57600080fd5b80633ed35855116100d15780633ed35855146101e857806341275358146102085780635c975abb14610230578063715018a61461024857600080fd5b80630259d33a146101035780630445ea4b1461014057806336cb414e1461017b5780633d140d21146101c6575b600080fd5b34801561010f57600080fd5b5061012361011e36600461103a565b610379565b6040516001600160a01b0390911681526020015b60405180910390f35b34801561014c57600080fd5b5061016d61015b366004611068565b60036020526000908152604090205481565b604051908152602001610137565b34801561018757600080fd5b506101b6610196366004611085565b600660209081526000928352604080842090915290825290205460ff1681565b6040519015158152602001610137565b3480156101d257600080fd5b506101e66101e13660046110cc565b6103a3565b005b3480156101f457600080fd5b506101e6610203366004611068565b61048b565b34801561021457600080fd5b506101237393f835b9a2eec7d2e289c1e0d50ad4ded88b253f81565b34801561023c57600080fd5b5060025460ff166101b6565b34801561025457600080fd5b506101e661053e565b34801561026957600080fd5b506000546001600160a01b0316610123565b34801561028757600080fd5b506101e661029636600461103a565b610574565b3480156102a757600080fd5b506101e66102b63660046110fa565b6106ee565b3480156102c757600080fd5b506101b66102d6366004611068565b60056020526000908152604090205460ff1681565b3480156102f757600080fd5b506101e6610306366004611126565b610742565b6101e6610319366004611068565b610a9a565b34801561032a57600080fd5b5061016d66038d7ea4c6800081565b34801561034557600080fd5b506101e6610354366004611068565b610b81565b34801561036557600080fd5b506101e6610374366004611068565b610c86565b6004818154811061038957600080fd5b6000918252602090912001546001600160a01b0316905081565b6001600160a01b03821660009081526005602052604090205460ff1661041f5760405162461bcd60e51b815260206004820152602660248201527f436f726e4669204761732054616e6b3a204e6f7420616e20617070726f76656460448201526520706179656560d01b60648201526084015b60405180910390fd5b3360008181526006602090815260408083206001600160a01b03871680855290835292819020805460ff191686151590811790915590519081529192917f1299be4ab334acdc5747f03ba508209acf422601c7ee3040dc8ff385b0aca989910160405180910390a35050565b6000546001600160a01b031633146104b55760405162461bcd60e51b815260040161041690611167565b6001600160a01b03811660009081526005602052604090205460ff1661051d5760405162461bcd60e51b815260206004820152601e60248201527f436f726e4669204761732054616e6b3a20496e76616c696420706179656500006044820152606401610416565b6001600160a01b03166000908152600560205260409020805460ff19169055565b6000546001600160a01b031633146105685760405162461bcd60e51b815260040161041690611167565b6105726000610d21565b565b6002600154036105965760405162461bcd60e51b81526004016104169061119c565b6002600155336000908152600360205260409020548111156105c45750336000908152600360205260409020545b600081116106205760405162461bcd60e51b8152602060048201526024808201527f436f726e4669204761732054616e6b3a204e6f7468696e6720746f20776974686044820152636472617760e01b6064820152608401610416565b3360009081526003602052604090205461063a9082610d71565b3360008181526003602052604080822093909355915183908381818185875af1925050503d806000811461068a576040519150601f19603f3d011682016040523d82523d6000602084013e61068f565b606091505b50509050806106b05760405162461bcd60e51b8152600401610416906111d3565b60405182815233907f0a73ebb74dd8b46e099c498775b28ddf6d2ea871271c58aa07d68f2b406fee99906020015b60405180910390a2505060018055565b6000546001600160a01b031633146107185760405162461bcd60e51b815260040161041690611167565b61073e61072d6000546001600160a01b031690565b6001600160a01b0384169083610d84565b5050565b3360009081526005602052604090205460ff166107ab5760405162461bcd60e51b815260206004820152602160248201527f436f726e4669204761732054616e6b3a20556e617070726f76656420706179656044820152606560f81b6064820152608401610416565b60025460ff16156107f15760405162461bcd60e51b815260206004820152601060248201526f14185d5cd8589b194e881c185d5cd95960821b6044820152606401610416565b6002600154036108135760405162461bcd60e51b81526004016104169061119c565b6002600155600061082b8266038d7ea4c68000610ddb565b6001600160a01b0385166000908152600360205260409020549091508111156108a75760405162461bcd60e51b815260206004820152602860248201527f436f726e4669204761732054616e6b3a20496e73756666696369656e7420757360448201526765722066756e647360c01b6064820152608401610416565b6001600160a01b0380851660009081526006602090815260408083209387168352929052205460ff1661092a5760405162461bcd60e51b815260206004820152602560248201527f436f726e4669204761732054616e6b3a205061796d656e74206e6f74206170706044820152641c9bdd995960da1b6064820152608401610416565b6001600160a01b03841660009081526003602052604090205461094d9082610d71565b6001600160a01b038581166000908152600360205260408082209390935591519085169084908381818185875af1925050503d80600081146109ab576040519150601f19603f3d011682016040523d82523d6000602084013e6109b0565b606091505b50506040519091506000907393f835b9a2eec7d2e289c1e0d50ad4ded88b253f9066038d7ea4c68000908381818185875af1925050503d8060008114610a12576040519150601f19603f3d011682016040523d82523d6000602084013e610a17565b606091505b50509050818015610a255750805b610a415760405162461bcd60e51b8152600401610416906111d3565b846001600160a01b0316866001600160a01b03167f288d9a5737d39d766acb848da277a970d9ee31f9115e17490b9393e282fa7b4d86604051610a8691815260200190565b60405180910390a350506001805550505050565b600260015403610abc5760405162461bcd60e51b81526004016104169061119c565b6002600155610acd60025460ff1690565b15610b0d5760405162461bcd60e51b815260206004820152601060248201526f14185d5cd8589b194e881c185d5cd95960821b6044820152606401610416565b6001600160a01b0381166000908152600360205260409020543490610b329082610ddb565b6001600160a01b038316600081815260036020526040908190209290925590517fa0a1bbb56d7b0e17df693cc2ebbb05d301dbc29207a1aa6c220a2719de861ce8906106de9084815260200190565b6000546001600160a01b03163314610bab5760405162461bcd60e51b815260040161041690611167565b6001600160a01b03811660009081526005602052604090205460ff1615610c205760405162461bcd60e51b8152602060048201526024808201527f436f726e4669204761732054616e6b3a20506179656520416c726561647920416044820152631919195960e21b6064820152608401610416565b6001600160a01b03166000818152600560205260408120805460ff191660019081179091556004805491820181559091527f8a35acfbc15ff81a39ae7d344fd709f28e8600b4aa8c65c6b64bfe7fe36bd19b0180546001600160a01b0319169091179055565b6000546001600160a01b03163314610cb05760405162461bcd60e51b815260040161041690611167565b6001600160a01b038116610d155760405162461bcd60e51b815260206004820152602660248201527f4f776e61626c653a206e6577206f776e657220697320746865207a65726f206160448201526564647265737360d01b6064820152608401610416565b610d1e81610d21565b50565b600080546001600160a01b038381166001600160a01b0319831681178455604051919092169283917f8be0079c531659141344cd1fd0a4f28419497f9722a3daafe3b4186f6b6457e09190a35050565b6000610d7d828461122d565b9392505050565b604080516001600160a01b038416602482015260448082018490528251808303909101815260649091019091526020810180516001600160e01b031663a9059cbb60e01b179052610dd6908490610de7565b505050565b6000610d7d8284611244565b6000610e3c826040518060400160405280602081526020017f5361666545524332303a206c6f772d6c6576656c2063616c6c206661696c6564815250856001600160a01b0316610eb99092919063ffffffff16565b805190915015610dd65780806020019051810190610e5a919061125c565b610dd65760405162461bcd60e51b815260206004820152602a60248201527f5361666545524332303a204552433230206f7065726174696f6e20646964206e6044820152691bdd081cdd58d8d9595960b21b6064820152608401610416565b6060610ec88484600085610ed0565b949350505050565b606082471015610f315760405162461bcd60e51b815260206004820152602660248201527f416464726573733a20696e73756666696369656e742062616c616e636520666f6044820152651c8818d85b1b60d21b6064820152608401610416565b6001600160a01b0385163b610f885760405162461bcd60e51b815260206004820152601d60248201527f416464726573733a2063616c6c20746f206e6f6e2d636f6e74726163740000006044820152606401610416565b600080866001600160a01b03168587604051610fa491906112a9565b60006040518083038185875af1925050503d8060008114610fe1576040519150601f19603f3d011682016040523d82523d6000602084013e610fe6565b606091505b5091509150610ff6828286611001565b979650505050505050565b60608315611010575081610d7d565b8251156110205782518084602001fd5b8160405162461bcd60e51b815260040161041691906112c5565b60006020828403121561104c57600080fd5b5035919050565b6001600160a01b0381168114610d1e57600080fd5b60006020828403121561107a57600080fd5b8135610d7d81611053565b6000806040838503121561109857600080fd5b82356110a381611053565b915060208301356110b381611053565b809150509250929050565b8015158114610d1e57600080fd5b600080604083850312156110df57600080fd5b82356110ea81611053565b915060208301356110b3816110be565b6000806040838503121561110d57600080fd5b823561111881611053565b946020939093013593505050565b60008060006060848603121561113b57600080fd5b833561114681611053565b9250602084013561115681611053565b929592945050506040919091013590565b6020808252818101527f4f776e61626c653a2063616c6c6572206973206e6f7420746865206f776e6572604082015260600190565b6020808252601f908201527f5265656e7472616e637947756172643a207265656e7472616e742063616c6c00604082015260600190565b60208082526024908201527f436f726e4669204761732054616e6b3a20455448207472616e736665722066616040820152631a5b195960e21b606082015260800190565b634e487b7160e01b600052601160045260246000fd5b60008282101561123f5761123f611217565b500390565b6000821982111561125757611257611217565b500190565b60006020828403121561126e57600080fd5b8151610d7d816110be565b60005b8381101561129457818101518382015260200161127c565b838111156112a3576000848401525b50505050565b600082516112bb818460208701611279565b9190910192915050565b60208152600082518060208401526112e4816040850160208701611279565b601f01601f1916919091016040019291505056fea26469706673582212202c909c1e8b39538d273e63f4e76c1463268cb01dc4911b8eeb492e888f99e76364736f6c634300080d0033",
    "sourcePath": "c:/Users/cbini/Desktop/Gas-Tank/contracts/GasTank.sol",
    "compiler": {
        "name": "solc",
        "version": "0.8.13+commit.abaa5c0e"
    },
    "functionHashes": {
        "_approvedPayees(address)": "aae8dd79",
        "addPayee(address)": "dce59c00",
        "approve(address,bool)": "3d140d21",
        "approvedPayees(uint256)": "0259d33a",
        "depositGas(address)": "c123cb44",
        "emergencyWithdraw(address,uint256)": "95ccea67",
        "feeAddress()": "41275358",
        "owner()": "8da5cb5b",
        "paused()": "5c975abb",
        "pay(address,address,uint256)": "b3d76188",
        "removePayee(address)": "3ed35855",
        "renounceOwnership()": "715018a6",
        "transferOwnership(address)": "f2fde38b",
        "txFee()": "cf820461",
        "userGasAmounts(address)": "0445ea4b",
        "userPayeeApprovals(address,address)": "36cb414e",
        "withdrawGas(uint256)": "91657544"
    },
    "gasEstimates": {
        "creation": {
            "codeDepositCost": "982000",
            "executionCost": "73186",
            "totalCost": "1055186"
        },
        "external": {
            "_approvedPayees(address)": "2614",
            "addPayee(address)": "77523",
            "approve(address,bool)": "infinite",
            "approvedPayees(uint256)": "4627",
            "depositGas(address)": "infinite",
            "emergencyWithdraw(address,uint256)": "infinite",
            "feeAddress()": "250",
            "owner()": "2343",
            "paused()": "2371",
            "pay(address,address,uint256)": "infinite",
            "removePayee(address)": "28971",
            "renounceOwnership()": "28203",
            "transferOwnership(address)": "infinite",
            "txFee()": "261",
            "userGasAmounts(address)": "2559",
            "userPayeeApprovals(address,address)": "infinite",
            "withdrawGas(uint256)": "infinite"
        }
    }
}